S018000050524F4A454354315F44494555484F412E7372656366
S11300000C942A000C9434000C9434000C943400A6
S11300100C9434000C9434000C9434000C9434008C
S11300200C9434000C9434000C9434000C9434007C
S11300300C9434000C9434000C9434000C9434006C
S11300400C9434000C9434000C9434000C9434005C
S11300500C94340011241FBECFE5D4E0DEBFCDBF25
S11300600E943E000C9475000C9400005D9BFECF32
S11300708CB908955F9BFECF8CB1089583E08ABB51
S11300801BBA83E389B986E080BD88E98AB985E330
S11300900E9436002FEF89E698E12150804090407D
S11300A0E1F700C000000E943A00813361F481E06E
S11300B08BBB2FEF89E698E1215080409040E1F717
S11300C000C000000FC00E943A00823359F482E05D
S11300D08BBB2FEF89E698E1215080409040E1F7F7
S11100E000C000001BBA1CB8D2CFF894FFCFAA
S9030000FC
